:020000040800F2
:100000007868002029030008193B0008C72E000863
:10001000FD3100080B0600085570000800000000C4
:10002000000000000000000000000000690200085D
:100030001108000800000000C5020008C9430008BC
:100040004303000843030008430300084303000878
:100050004303000843030008430300084303000868
:100060004303000843030008430300084303000858
:100070004303000843030008430300084303000848
:100080004303000843030008430300082106000857
:100090001106000843030008430300084303000857
:1000A0004303000843030008430300084303000818
:1000B0004303000843030008C54400084303000845
:1000C00043030008430300084303000843030008F8
:1000D00043030008430300084303000843030008E8
:1000E00043030008430300084303000843030008D8
:1000F00043030008430300084303000843030008C8
:1001000043030008430300084303000843030008B7
:1001100043030008430300084303000843030008A7
:100120004303000843030008430300084303000897
:100130004303000843030008430300084106000886
:100140004303000831060008430300081D3B000874
:100150004303000843030008430300084303000867
:100160004303000843030008430300084303000857
:100170004303000843030008430300080000000095
:10018000430300084303000800F002F800F05CF8A5
:100190000AA090E8000C82448344AAF10107DA45E2
:1001A00001D100F051F8AFF2090EBAE80F0013F0D8
:1001B000010F18BFFB1A43F001031847688D0000B8
:1001C000888D00000A444FF0000C10F8013B13F03A
:1001D000070408BF10F8014B1D1108BF10F8015BA0
:1001E000641E05D010F8016B641E01F8016BF9D193
:1001F00013F0080F1EBF10F8014BAD1C0C1B09D1EA
:100200006D1E58BF01F801CBFAD505E014F8016B5B
:1002100001F8016B6D1EF9D59142D6D370470000ED
:100220000023002400250026103A28BF78C1FBD8FF
:10023000520728BF30C148BF0B6070471FB508F098
:100240004BFE1FBD10B510BD00F0A6F91146FFF71B
:10025000F5FF06F049FF00F0C4F903B4FFF7F2FF21
:1002600003BC00F0CBF900002C4B19680868B0E81B
:10027000F04F80F30988BFF36F8F4FF0000080F3D9
:10028000118870470000000008480068006880F38B
:1002900008884FF0000080F3148862B661B6BFF39F
:1002A0004F8FBFF36F8F00DF00BF00BF08ED00E08E
:1002B000DFF80C00016841F470010160704700BF75
:1002C00088ED00E0EFF30980BFF36F8F134B1A68DE
:1002D0001EF0100F08BF20ED108A20E9F04F1060CB
:1002E00009B44FF0500080F31188BFF34F8FBFF374
:1002F0006F8F07F07DFE4FF0000080F3118809BC7E
:1003000019680868B0E8F04F1EF0100F08BFB0EC95
:10031000108A80F30988BFF36F8F7047C8000020F0
:10032000EFF30580704700000948804709480047FF
:10033000FEE7FEE7FEE7FEE7FEE7FEE7FEE7FEE795
:10034000FEE7FEE704480549054A064B70470000F2
:10035000B144000889010008786200207868002014
:10036000786400207864002053EA020C00F0698071
:100370002DE9F04B4FF00006002B1FBFB3FA83F5B9
:1003800003FA05F424FA05F65E4012BF1643B2FAEA
:1003900082F502FA05F4C5F120051EBF22FA05FC1C
:1003A00044EA0C04203556EA044C4FEA144418BFC2
:1003B000641C4FF000084FF00009904271EB030CF1
:1003C00039D3002919BFB1FA81F701FA07F6B0FA5B
:1003D00080F700FA07F6C7F120071EBF20FA07FCD6
:1003E00046EA0C062037B6FBF4FCA7EB0507103FE6
:1003F00007F01F0BCBF120060CFA0BFB2CFA06F6CC
:1004000044BFB3460026202FA4BF5E464FF0000B2A
:100410005BEA060C08BF4FF0010B19EB0B09ABFBB5
:10042000027C48EB0608C01B06FB02CC0BFB03CC8E
:1004300071EB0C01C1E70B46024641464846BDE858
:10044000F08B13B54FF000004FF00001AFF30080C8
:10045000BDE81C407047032A40F2308010F0030CC6
:1004600000F0158011F8013BBCF1020F624498BF07
:1004700011F801CB00F8013B38BF11F8013BA2F1A4
:10048000040298BF00F801CB38BF00F8013B11F01F
:10049000030300F02580083AC0F0088051F8043BBF
:1004A000083A51F804CBA0E80810F5E7121D5CBF2C
:1004B00051F8043B40F8043BAFF30080D20724BF5F
:1004C00011F8013B11F801CB48BF11F8012B24BFF3
:1004D00000F8013B00F801CB48BF00F8012B704742
:1004E00010B5203AC0F00B80B1E81850203AA0E8CF
:1004F0001850B1E81850A0E81850BFF4F5AF5FEA03
:10050000027C24BFB1E81850A0E8185044BF18C9B5
:1005100018C0BDE810405FEA827C24BF51F8043B5C
:1005200040F8043B08BF7047D20728BF31F8023BB0
:1005300048BF11F8012B28BF20F8023B48BF00F844
:10054000012B70474FF0000200B5134694469646C3
:10055000203922BFA0E80C50A0E80C50B1F12001D6
:10056000BFF4F7AF090728BFA0E80C5048BF0CC084
:100570005DF804EB890028BF40F8042B08BF7047E2
:1005800048BF20F8022B11F0804F18BF00F8012B54
:100590007047704770477047754600F02BF8AE46BD
:1005A00005006946534620F00700854618B020B57F
:1005B000FFF7C8FEBDE820404FF000064FF00007EF
:1005C0004FF000084FF0000B21F00701AC46ACE8FB
:1005D000C009ACE8C009ACE8C009ACE8C0098D4668
:1005E000704710B50446AFF300802046BDE81040C8
:1005F000FFF733BE004870471462002001491820FD
:10060000ABBEFEE726000200704700BFFEE7000019
:1006100010B5024800F041FB10BD0000AC080020FE
:1006200010B5024800F039FB10BD0000AC080020F6
:1006300010B5024800F031FB10BD0000D4080020C6
:1006400010B5024800F029FB10BD0000D4080020BE
:1006500030B587B004460D461C216846FFF772FF8F
:10066000094A2068904201D0012000E000200146A4
:100670002B466A46204600F046FA029810B90098C8
:1006800007B030BD0198FBE7006400400346042B2F
:1006900015D007DC7BB1012B0ED0022B0DD0032B24
:1006A00012D10BE0202B0BD0212B0AD0222B09D00A
:1006B000232B09D107E008E007E006E005E004E0AD
:1006C00003E002E001E000E000BF00BF002070474F
:1006D0000020704710B500220449054804F067FA6D
:1006E0000449034804F054FA002010BD20160020ED
:1006F00044090020200E002070B504460D4629460E
:10070000204600F003F8002070BD000038B5054613
:100710000C4600236A4621460748006807F0B0FEF1
:10072000009838B14FF0805004490860BFF34F8FF4
:10073000BFF36F8F38BD00002C00002004ED00E0F7
:1007400070B504460D4609480580206801280BD184
:100750004D2221460648FFF77EFE00231A46194621
:100760000448006807F0B8FD70BD000018000020C4
:10077000A80500201400002010B503460C460021F7
:10078000084610BD2DE9F04104460D4600260A48F2
:10079000D0F8BC72D7F8140210B10120BDE8F08186
:1007A0002A462146044804F002FA034804F0B2FA4B
:1007B00006463046F2E700004409002010B58AB032
:1007C0000446002006900120079000200090019030
:1007D000029003900E2009900B492068884202D1B4
:1007E00000200590049009492068884203D10E201A
:1007F000059001200490012008906946204600F0F1
:10080000F1F80AB010BD000000640040006800402C
:10081000704772B600BFFEE730EE601AB0EEC11A44
:10082000DFED051AB4EEE11AF1EE10FA01D2012063
:1008300070470020FCE700008FC2F53C70B50A4805
:100840000468001D0568001D0668344454B1082280
:100850000649204602F039FB04220449103128469B
:1008600002F033FB70BD0000107AFF1F8A000020E9
:1008700010B5024692F82030012B01D0022B06D190
:1008800010684069084314686061002010BD506A18
:1008900040F4802050620120F8E7F0B504460D4690
:1008A0001E4694F8207020688368A86800B900E0AC
:1008B00000BF012F01D0022F7DD103F0806030B93D
:1008C00003F0006018B903F0805000287ED0C3F315
:1008D0000161012088403060A86860B9B5F800C0A7
:1008E000E86840EA4C5C206800F5C07000EB01103D
:1008F000C0F800C00FE0D5E901C040EACC00D5F84F
:100900000CC040EA0C00D4F800C00CF5C07C0CEB25
:10091000011CCCF80000D5F810C0206800F5C070AC
:1009200000EB0110C0F804C0287D01280ED120681A
:1009300000F5C07000EB0110406840F4807C206836
:1009400000F5C07000EB0110C0F804C0D0790006BB
:1009500092F806C040EA0C4092F805C040EA0C202C
:1009600092F804C040EA0C00D4F800C00CF5C07C3A
:100970000CEB011CCCF80C00D078000692F802C0F9
:1009800040EA0C4092F801C040EA0C2092F800C006
:1009900040EA0C00D4F800C00CF5C07C0CEB011C44
:1009A000CCF80800206800F5C07000EB011000686A
:1009B00040F0010C01E00FE008E0206800F5C07095
:1009C00000EB0110C0F800C00020F0BD606A40F4E8
:1009D000001060620120F8E7606A40F480206062E5
:1009E0000120F2E7F0B504460A4694F82050012DA4
:1009F00001D0022D7ED1424901F50071086840F016
:100A000001000860086820F47C5008600868566A95
:100A100040EA06200860107D00F01F06012000FA61
:100A200006F3C8699843C861A1F50071D069C8B9D7
:100A3000D1F80C029843C1F80C02908880B29689D4
:100A400040EA064601F51070576940F83760108893
:100A500080B2168940EA064601F51070576900EB2E
:100A6000C7004660D069012819D1D1F80C0218439B
:100A7000C1F80C02908880B2168840EA064601F55B
:100A80001070576940F83760908980B2168940EA43
:100A9000064601F51070576900EBC7004660906983
:100AA00028B9D1F804029843C1F8040204E0D1F84F
:100AB00004021843C1F80402106928B9D1F81402DD
:100AC0009843C1F8140204E0D1F814021843C1F8A5
:100AD0001402106A012804D1D1F81C021843C1F88D
:100AE0001C02D1F8000220F00100C1F80002002031
:100AF000F0BDFFE7606A40F4802060620120F7E704
:100B000000640040704770B5044694F82050012DF1
:100B100001D0022D7DD151B92068C06800F00300DA
:100B200080B9606A40F400106062012070BD2068E6
:100B3000006900F0030028B9606A40F400106062A8
:100B40000120F3E7206800F5D87000EB0110006881
:100B500000F004009060906840B9206800F5D870FB
:100B600000EB01100068400D106007E0206800F500
:100B7000D87000EB01100068C0085060206800F5D4
:100B8000D87000EB0110006800F00200D06020680F
:100B900000F5D87000EB0110406800F00F00082845
:100BA00002D30820106108E0206800F5D87000EB3F
:100BB0000110406800F00F001061206800F5D87047
:100BC00000EB0110406800F47F40000A906120684B
:100BD00000F5D87000EB01104068000C50612068EF
:100BE00000F5D87000EB011080681870206800F5DF
:100BF000D87000EB0110806800F47F40000A587044
:100C0000206800F5D87000EB0110806800F47F00C8
:100C100000E03CE0000C9870206800F5D87000EB14
:100C200001108068000ED870206800F5D87000EBC5
:100C30000110C0681871206800F5D87000EB011031
:100C4000C06800F47F40000A5871206800F5D87031
:100C500000EB0110C06800F47F00000C9871206860
:100C600000F5D87000EB0110C068000ED87131B9E2
:100C70002068C06840F020002668F06005E0206829
:100C8000006940F020002668306100204EE7606A6D
:100C900040F480206062012048E72DE9F05F0446BF
:100CA0000025206846692068D0F80490206887688D
:100CB0002068D0F80CA02068D0F810B02068D0F8D8
:100CC000188006F00100002855D007F00100C0B1DF
:100CD00001202168886007F0020018B1204600F06A
:100CE000FAFA0EE007F0040010B145F4006508E0E0
:100CF00007F0080010B145F4805502E0204600F0EE
:100D0000E9FA07F48070C8B14FF4807021688860F8
:100D100007F4007018B1204600F0DFFA0EE007F487
:100D2000806010B145F4005508E007F4006010B190
:100D300045F4804502E0204600F0CEFA07F480300A
:100D4000C8B14FF480302168886007F4003018B1D2
:100D5000204600F0C4FA0EE007F4802010B145F4FC
:100D6000004508E007F4002010B145F4803502E0AA
:100D7000204600F0B3FA06F0080038B10AF010007F
:100D800020B145F4007510202168C86006F0040009
:100D900040B10AF0080028B108202168C860204648
:100DA00000F01CFA06F0020038B12068C06800F0BC
:100DB000030010B1204600F013FA06F0400038B1ED
:100DC0000BF0100020B145F4806510202168086107
:100DD00006F0200040B10BF0080028B1082021687F
:100DE0000861204600F01CFA06F0100038B12068B7
:100DF000006900F0030010B1204600F013FA06F479
:100E0000003040B109F0100028B11020216848607E
:100E1000204600F02FFA06F4803040B109F00800B7
:100E200028B1082021684860204600F059FA06F4ED
:100E3000004088B309F0040078B306F4807020B154
:100E400008F0010008B145F0010506F4007020B17A
:100E500008F0020008B145F0020506F4806020B1F8
:100E600008F0040008B145F0040506F40060A0B1E4
:100E700008F0700088B108F07000402817D006DC38
:100E800010280BD020280CD0302819D10CE0502885
:100E900010D0602814D110E01DE019E045F00805DD
:100EA0000FE045F010050CE045F0200509E045F0A5
:100EB000400506E045F0800503E045F4807500E05C
:100EC00000BF00BF2068806920F070002168886141
:100ED0000420216848602DB1606A28436062204682
:100EE000FFF710FEBDE8F09F70B504460CB9012075
:100EF00070BD94F8200010B9204600F0AFF82068CB
:100F0000006840F001002168086000F0FFFA054623
:100F10000DE000F0FBFA401B0A2808D9606A40F493
:100F200000306062052084F820000120E0E720689E
:100F3000406800F001000028EBD02068006820F035
:100F400002002168086000F0E1FA05460DE000F0BB
:100F5000DDFA401B0A2808D9606A40F4003060625C
:100F6000052084F820000120C2E72068406800F0D6
:100F700002000028EBD1207E012806D120680068FD
:100F800040F080002168086005E02068006820F0DB
:100F9000800021680860607E012806D12068006812
:100FA00040F040002168086005E02068006820F0FB
:100FB000400021680860A07E012806D120680068F2
:100FC00040F020002168086005E02068006820F0FB
:100FD000200021680860E07E012806D120680068B2
:100FE00020F010002168086005E02068006840F0EB
:100FF000100021680860207F012806D12068006861
:1010000040F008002168086005E02068006820F0D2
:10101000080021680860607F012806D12068006808
:1010200040F004002168086005E02068006820F0B6
:10103000040021680860D4E90201084321690843DB
:10104000616908436168491E08432168C86100203E
:101050006062012084F82000002049E710B586B0C6
:101060000446142101A8FFF76DFA57492068884209
:101070004AD156480068401C544908600846006838
:1010800001280FD100BF002000905148006840F0B7
:1010900000704F4908600846006800F0007000903A
:1010A00000BF00BF00BF0020009049481038006812
:1010B00040F002004649103908600846006800F018
:1010C0000200009000BF00BF4FF44070019002206A
:1010D000029000200390032004900920059001A9AC
:1010E0003C4800F013F900220521132000F0D6FA45
:1010F000132000F0BFFA00220521142000F0CEFAE0
:10110000142000F0B7FA5CE033492068884258D1D7
:1011100000BF002000902E48006840F080602C49FD
:1011200008600846006800F08060009000BF00BFC3
:1011300026480068401C25490860084600680128C8
:101140000FD100BF002000902148006840F00070DF
:101150001F4908600846006800F00070009000BF5A
:1011600000BF00BF0020009019481038006840F010
:1011700002001749103908600846006800F00200B4
:10118000009000BF00BF602001900220029000206C
:101190000390032004900920059001A90D4800F058
:1011A000B5F8002205213F2000F078FA3F2000F03A
:1011B00061FA00220521412000F070FA412000F080
:1011C00059FA06B010BD0000006400405000002035
:1011D00040380240000402400068004070470000B0
:1011E0007CB504460B492068884212D169460A48FA
:1011F000FFF72EFA05466B462A460749074802F0D4
:1012000081FF6B462A4604490448C83002F07AFF41
:1012100000BF7CBD00640040AC08002088020020B4
:10122000704700007CB504460E492068884218D1FA
:1012300069460D48FFF70CFA05466B462A460A49EF
:101240000A4802F05FFF6B462A460749084802F049
:1012500059FF6B462A4604490548C83002F052FF40
:1012600000BF7CBD00680040D4080020C001002001
:1012700018040020704770B5044694F82000012837
:1012800022D1022084F820002068006820F00100AC
:101290002168086000F03AF905460DE000F036F9E3
:1012A000401B0A2808D9606A40F4003060620520BB
:1012B00084F82000012070BD2068406800F0010023
:1012C0000028EBD16062F6E7606A40F400206062BB
:1012D0000120F0E7704770477047704770477047CC
:1012E0007047000070B5044600F010F90646254628
:1012F000681C10B104480078054400BF00F006F9EE
:10130000801BA842FAD370BDC0000020F8B5024689
:101310000B460025002400200021D6E0012606FA15
:1013200001F51E6806EA0504AC4274D11E7906F088
:101330000306012E04D01E7906F00306022E13D1F7
:1013400090684F000326BE40B0434F00DE68BE40A9
:1013500030439060506801268E40B0431E79C6F33A
:1013600000168E40304350601E7906F00306032EAF
:1013700009D0D0684F000326BE40B0434F009E689E
:10138000BE403043D0601E7906F00306022E13D112
:10139000CF0802F1200656F827004E07F70E0F2659
:1013A000BE40B0434F07FF0E1E69BE403043CF081A
:1013B00002F1200646F8270010684F000326BE40C1
:1013C000B0431E7906F003064F00BE403043106064
:1013D0005E6806F44036002E76D000BF00260096E8
:1013E0003C4E366846F480463A4F3E603E4636688C
:1013F00006F48046009600BF00BF374E8F0856F8AF
:1014000027008E07370F0F26BE40B043334EB2423F
:1014100002D1002624E057E0314EB24201D101262C
:101420001EE0304EB24201D1022619E02E4EB242E9
:1014300001D1032614E02D4EB24201D104260FE063
:101440002B4EB24201D105260AE02A4EB24201D10A
:10145000062605E0284EB24201D1072600E0082604
:101460008F073F0FBE4030431B4E8F0846F82700C2
:10147000224E3068A0435E6806F4801606B1204311
:101480001E4E3060361D3068A0435E6806F40016BC
:1014900006B12043194E361D3060184E361F306895
:1014A000A0435E6806F4003606B12043134E361F93
:1014B0003060361F3068A0435E6806F4803606B19F
:1014C00020430E4E083E3060491C1029FFF426AF21
:1014D000F8BD0000443802400838014000000240D6
:1014E0000004024000080240000C024000100240CC
:1014F0000014024000180240001C0240083C014059
:101500000AB1816101E00B04836170470148006802
:1015100070470000B80000200348006803490978BC
:101520000844014908607047B8000020C00000204E
:1015300010B50D48006840F400700B49086008467B
:10154000006840F4806008600846006840F48070DD
:101550000860032000F0E0F80F2000F007F800F02A
:101560005FF8002010BD0000003C02402DE9F04172
:1015700088B004460027B84600BF002001902348E9
:10158000006840F00400214908600846006800F047
:101590000400019000BF00BF02A903A801F064F895
:1015A000069F1FB901F088F8054602E001F084F8B3
:1015B00045001748B5FBF0F0A0F1010815481649A1
:1015C000086040F2E7311448C160C0F8048000218F
:1015D00001618160816101F027FB064696B90E48E2
:1015E00001F056FB06466EB91E2000F043F8102CA1
:1015F00007D2002221461E2000F050F80748046060
:1016000000E00126304608B0BDE8F08140380240D5
:1016100040420F0000080040FC080020BC000020F1
:1016200008B500BF002000901148006840F48040D9
:101630000F4908600846006800F48040009000BF31
:1016400000BF00BF00200090081F006840F08050DD
:10165000091F08600846006800F08050009000BF35
:1016600000BF00220F21901E00F018F808BD0000F6
:10167000443802400146084600280DDB00BF00BF89
:1016800000F01F0301229A4043099B0003F1E0236D
:10169000C3F8002100BF00BF00BF70472DE9F05F15
:1016A00080460D461646002705F0D6FC074639460B
:1016B0002A46334601F00700C0F1070ABAF1040FC9
:1016C00002D94FF0040A01E0C0F1070AD14600F147
:1016D000040ABAF1070F02D24FF0000A01E0A0F1AC
:1016E000030AD4464FF0010A0AFA09FAAAF1010ADC
:1016F0000AEA020A0AFA0CFA4FF0010B0BFA0CFB89
:10170000ABF1010B0BEA030B4AEA0B0421464046FE
:1017100005F0AAFCBDE8F09F00BF00F00702064BF1
:1017200019684FF6FF031940044B0B4343EA0221AB
:10173000014B196000BF70470CED00E00000FA0596
:10174000704702461068416200207047F0B50346BA
:1017500015461868446A21B944EA05401E68B0621B
:1017600019E01868806A04EB1044002208E0186849
:1017700000F5827050F8220004EB1044501CC2B2F5
:10178000481E9042F3D844EA0547186800F5827075
:101790004E1E40F826700020F0BD10B50446D4F867
:1017A000E00403F032FF10BD70B504460D4605EBB2
:1017B000C50304F1140101EB8301CA682946D4F87A
:1017C000E00403F015FE70BD70B504460D4605EB50
:1017D000C50304F5157101EB8301CA682946D4F8E5
:1017E000E00403F08DFE70BD10B50446D4F8E004AB
:1017F00003F00EFF10BD2DE9F04104460D4605F043
:101800008000802808D105F00F0000EBC00104F132
:10181000140000EB810607E005F00F0000EBC001AB
:1018200004F5157000EB81063146206805F076F965
:1018300007463846BDE8F08170B504460E4606F00E
:10184000800080280AD106F00F0000EBC00104F1EF
:10185000140000EB81050120687009E006F00F001C
:1018600000EBC00104F5157000EB810500206870E5
:1018700006F00F00287000BF94F89404012801D1ED
:10188000022070BD012084F8940400BF294620681E
:1018900004F0D2FC00BF002084F8940400BF00BF15
:1018A000EFE770B504460E4606F00F002179884236
:1018B00001D9012070BD06F0800080280AD106F011
:1018C0000F0000EBC00104F1140000EB81050120C2
:1018D000687009E006F00F0000EBC00104F5157018
:1018E00000EB8105002068700020A87006F00F0052
:1018F000287000BF94F89404012801D10220D9E790
:10190000012084F8940400BF2946206804F092FE68
:1019100000BF002084F8940400BF00BFCAE702465D
:1019200001F00F0000EBC00302F5157000EB83001F
:10193000406970472DE9F04705460E4690461F4620
:101940004FF0000906F0800080280AD106F00F0051
:1019500000EBC00105F1140000EB81040120607070
:1019600009E006F00F0000EBC00105F5157000EB73
:1019700081040020607006F00F002070C8F30A0098
:10198000A0602771607808B120786083022F01D1B0
:101990000020607100BF95F89404012802D1022054
:1019A000BDE8F087012085F8940400BF214628682F
:1019B00004F01EFB00BF002085F8940400BF4846D9
:1019C000EEE72DE9F04105460E461746984606F02B
:1019D0000F0000EBC00105F5157000EB8104E76016
:1019E000C4F8108000206061607006F00F00207065
:1019F000A879012800D1E761AA792146286804F076
:101A0000ADFE0020BDE8F08170B504460D4605F03E
:101A10000F002179884201D9012070BD05F08000B6
:101A200080280AD105F00F0000EBC00104F114007A
:101A300000EB81060120707007E005EBC50104F59D
:101A4000157000EB8106002070700120B07005F069
:101A50000F00307000BF94F89404012801D10220D7
:101A6000DBE7012084F8940400BF3146206804F0CD
:101A700028FE05F00F0028B9A17904F29C422068E5
:101A800004F0A0FD00BF002084F8940400BF00BF54
:101A9000C3E72DE9F04105460E461746984606F085
:101AA0000F0000EBC00105F1140000EB8104E760BA
:101AB000C4F81080002060610120607006F00F0003
:101AC0002070A879012800D1E761AA792146286809
:101AD00004F044FE0020BDE8F0812DE9FE4F0446ED
:101AE000D4F800B05E46206805F0FAF8002874D1FA
:101AF000206805F034F908B9BDE8FE8F40F608000B
:101B00008059C0F30D20C4F8D404206805F027F9EB
:101B100000F00200022805D12068406900F00200B0
:101B200021684861206805F01AF900F010001028BB
:101B300045D12068806920F0100021688861DBF8B9
:101B4000209009F00F0000EBC00104F5157000EBC8
:101B5000810AC9F3434002281AD147F6F07009EA16
:101B6000000030B3C9F30A125846DAF80C1005F039
:101B7000FBF8C9F30A11DAF80C000844CAF80C00A3
:101B8000C9F30A11DAF814000844CAF8140010E086
:101B9000C9F3434006280CD1082204F29C41584660
:101BA00005F0E2F8C9F30A11DAF814000844CAF89B
:101BB00014002068806940F0100021688861206866
:101BC00005F0CDF800F40020B0F5002F7BD1002502
:101BD000206805F094F8029072E0E1E2029800F0CB
:101BE0000100002868D0E9B2206805F0ABF8804613
:101BF00008F0010048B1012106F5306000EB451006
:101C000081602946204601F0C3FF08F0080008283B
:101C100009D1082106F5306000EB451081602946A6
:101C2000204601F083FF08F01000102805D1102194
:101C300006F5306000EB4510816008F002000228D4
:101C400024D1DBF8140000F08000802807D140F692
:101C50000400805940F4806140F60400815105EB96
:101C6000C50104F5157000EB810A9AF803000128FC
:101C700006D100208AF80300E9B2204600F09BFA62
:101C8000022106F5306000EB4510816008F020006D
:101C9000202805D1202106F5306000EB4510816039
:101CA00008F40050B0F5005F06D14FF4005106F57E
:101CB000306000EB451081606D1C02984008029076
:101CC000029800288AD1206805F049F800F48020A5
:101CD000B0F5802F7DD1206805F007F8029000252F
:101CE0009AE0029800F00100002873D0E9B2206861
:101CF00005F00FF8804608F00100F0B305F00F0181
:101D000001208840019040F634008159019821EA71
:101D1000000040F634018851012106F5106000EB07
:101D200045108160A079012824D105EBC50104F19B
:101D3000140000EB810005EBC502C16804F114003A
:101D400000EB82008068014405EBC50204F1140039
:101D500000EB8200C1606DB905EBC50104F1140010
:101D600000EB8100006928B904F29C42012120683F
:101D700004F028FCE9B2204600E001E0FFF714FD82
:101D800008F00800082805D1082106F5106000EBCE
:101D90004510816008F01000102805D1102106F5CB
:101DA000106000EB4510816008F04000402805D12C
:101DB000402106F5106000EB4510816008F002003C
:101DC00002281DD12946584604F04DFF05EBC501F8
:101DD00001E025E01CE004F1140000EB810A9AF810
:101DE0000300012806D100208AF80300E9B220464A
:101DF00000F0D8F9022106F5106000EB4510816073
:101E000008F08000802803D12946204601F062FFB7
:101E10006D1C029840080290029800287FF461AF80
:101E2000206804F09CFF00F00040B0F1004F1CD18E
:101E300040F60400805920F0010140F60400815171
:101E400094F8CC04012807D1002084F8CC040021A8
:101E50002046FFF775FC02E0204600F0D1FA20682A
:101E6000406900F0004021684861206804F077FF75
:101E700000F40060B0F5006F0ED140F60800805904
:101E800000F0010010B1204600F012FB206840690C
:101E900000F4006021684861206804F060FF00F4ED
:101EA0008050B0F5805F7ED140F60400805920F06C
:101EB000010140F6040081511021206804F0D3FE96
:101EC000002732E04FF67F3106F5106000EB471037
:101ED000816006F5106000EB4710006820F40011E7
:101EE00006F5106000EB471001604FF67F3106F5F4
:101EF000306000EB4710816006F5306000EB471062
:101F0000006820F4001106F5306000EB4710016016
:101F100006F5306000EB4710006840F0006106F500
:101F2000306000EB471001607F1C2079B842C9D8AF
:101F300040F61C00805940F0011140F61C00815110
:101F4000E07B70B1D6F8840840F00B01C6F8841825
:101F500040F64400805940F00B0140F644008151A6
:101F60000FE040F61400805942F22B01084340F67E
:101F700014018851081F805940F00B014FF4016093
:101F80008151D6F8000820F4FE60C6F80008A17957
:101F900004F29C42206804F015FB2068406900F4BC
:101FA0008050216800E000E04861206804F0D7FE1E
:101FB00000F40050B0F5005F17D1206804F080F8FD
:101FC000206804F07AFEE07100F070FB0090E27986
:101FD0002068009904F0A8FF204600F0F9F9206875
:101FE000406900F4005021684861206804F0B7FEA1
:101FF00000F00800082808D1204600F008FA206800
:10200000406900F0080021684861206804F0A7FEDC
:1020100000F08000802818D1DBF8180020F0800044
:10202000CBF8180001250DE005EBC50104F515708E
:1020300000EB8100C078012803D1E9B22046FFF708
:10204000DAFB6D1C2079A842EED8206804F087FEE8
:1020500000F48010B0F5801F2DD1012522E006F597
:10206000106000EB4510D0F8009005EBC50104F1BD
:10207000140000EB81000079012812D109F0004022
:10208000B0F1004F0DD1012105EBC50204F11400A0
:1020900000EB8200C170E8B240F080012046FFF7FB
:1020A000AAFB6D1C2079A842D9D82068406900F4A9
:1020B000801021684861206804F051FE00F400108F
:1020C000B0F5001F44D1012538E006F5306000EB83
:1020D0004510D0F8009005EBC50104F5157000EB34
:1020E00081000079012828D109F00040B0F1004FAB
:1020F00023D194F8D40400F00100C9F300418842D0
:102100001BD1012105EBC50204F5157000EB82001F
:10211000C170DBF8180040F08000CBF81800DBF845
:10212000140000F0800040B940F60400805940F4EB
:10213000007140F60400815103E06D1C2079A84233
:10214000C3D800BF2068406900F4001021684861CE
:10215000206804F004FE00F08040B0F1804F08D108
:102160002046FFF71AFB2068406900F08040216894
:102170004861206804F0F3FD00F0040004280FD14A
:102180002068D0F8049009F00400042802D1204609
:10219000FFF72AFB2068406840EA09002168486090
:1021A00000BFA9E470B504460D462946D4F8E00402
:1021B00003F09AFA70BD70B504460D462946D4F86E
:1021C000E00403F0B5FA70BDF8B504460CB901207F
:1021D000F8BD266894F8950428B9002084F8940482
:1021E000204600F0A1F8032084F89504B6F1A04F32
:1021F00001D10021A171206804F0DCF9207C8DF868
:10220000000094E80F0003F09FFF20B1022084F843
:1022100095040120DCE70021206804F033FE20B1A2
:10222000022084F895040120D2E7002531E0012145
:1022300005EBC50204F1140000EB8200417005EBD0
:10224000C50104F1140000F8215005EBC50100EBB5
:1022500081004583002105EBC50204F1140000EB69
:102260008200017105EBC50204F1140000EB82004D
:10227000816005EBC50204F1140000EB8200C1602F
:1022800005EBC50204F1140000EB82000161681C3B
:10229000C5B22079A842CADC00252AE0002105EB5E
:1022A000C50204F5157000EB8200417005EBC50115
:1022B00004F5157000F82150002105EBC50200EB74
:1022C0008200017105EBC50204F5157000EB820078
:1022D000816005EBC50204F5157000EB8200C1605A
:1022E00005EBC50204F5157000EB82000161681C66
:1022F000C5B22079A842D1DC207C8DF8000094E89A
:102300000F0004F063F820B1022084F89504012046
:102310005EE700206074012084F89504206804F0D2
:1023200043F8002054E7000010B586B0044614219D
:1023300001A8FEF707F92068B0F1A04F42D100BF15
:10234000002000902048006840F001001E4908600D
:102350000846006800F00100009000BF00BF4FF485
:10236000C0500190022002900020039003200490AE
:102370000A20059001A91548FEF7C8FF00BF1248C2
:10238000001D006840F080000F49091D086000BF73
:10239000002000900C481430006840F480400A4946
:1023A000143108600846006800F48040009000BFC7
:1023B00000BF00BF002205214320FFF76FF9432033
:1023C000FFF758F906B010BD303802400000024057
:1023D00070B504460125E07908B9002506E0E079EA
:1023E000022801D1012501E0FEF713FA2946D4F8AD
:1023F000E00403F047FAD4F8E00403F0EDF970BD0F
:1024000010B50446D4F8E00403F01DFA10BD10B571
:102410000446D4F8E00403F021FA10BD70B5044678
:102420000D4600BF94F89404012801D1022070BD2C
:10243000012084F8940400BF65742946206804F0E4
:1024400055FD00BF002084F8940400BF00BFEEE7F4
:1024500010B5044604F29C41D4F8E00403F029FAD4
:1024600010BD70B50446256800BF94F89404012897
:1024700001D1022070BD012084F8940400BFE868F7
:1024800000F0400030B1607B012803D1A86B40F41C
:102490008030A863206804F0B7FB206803F072FF67
:1024A00000BF002084F8940400BF00BFE2E70000F2
:1024B00010B50446D4F8E00403F058FA2068D0F8C8
:1024C000000E40F001002168C1F8000EE07A28B14A
:1024D0000348006840F006000149086010BD000094
:1024E00010ED00E070B504460D460CB9012070BD3A
:1024F0005848006800F00700A84209D255490D70FD
:102500000846006800F00700A84201D00120EEE76D
:10251000207800F0020002281DD1207800F004008D
:10252000042805D14C48006840F4E0504A4908604E
:10253000207800F00800082805D14748006840F4DA
:102540006040454908604448006820F0F000A168F8
:10255000084341490860207800F00100A8B3606892
:10256000012807D13C4808380068C0F34040B8B99A
:102570000120BCE76068022802D06068032807D108
:10258000354808380068C0F3406048B90120AEE71C
:10259000314808380068C0F3400008B90120A6E7B8
:1025A0002D48006820F00300616808432A4908604C
:1025B000FEF7ACFF064609E0FEF7A8FF801B41F2DC
:1025C0008831884202D9032091E707E02248006859
:1025D00000F00C006168B0EB810FEDD11D48006880
:1025E00000F00700A84209D91A490D700846006892
:1025F00000F00700A84201D0012078E7207800F021
:102600000400042807D11448006820F4E050E16871
:10261000084311490860207800F00800082808D114
:102620000D48006820F46040216940EAC1000A4971
:10263000086000F051F808490968C1F30311074A1E
:10264000515CC8400649086006480068FEF78EFFE6
:1026500000204CE7003C024008380240008F000890
:10266000C4000020BC0000200F2202600D4A126846
:1026700002F0030242600B4A126802F0F00282602C
:10268000084A126802F4E052C260064A126802F474
:102690006042D2080261044A126802F007020A602E
:1026A0007047000008380240003C024001480068C2
:1026B00070470000C400002000B5FFF7F7FF044991
:1026C0000968C1F38221034A515CC84000BD000083
:1026D00008380240108F00082DE9F047002400253B
:1026E0000026A1462548006800F00C0020B104280F
:1026F00005D008283AD105E0DFF8849039E0DFF80A
:10270000849036E01D48001F006800F03F041B481D
:10271000001F006800F4800078B11A481749091FAB
:102720000968C1F38811A0FB01700146224600230D
:102730003846FDF719FE05460EE011480F49091FFE
:102740000968C1F38811A0FB0170014622460023ED
:102750003846FDF709FE05460848001F0068C0F32B
:102760000140401C4600B5FBF6F902E0DFF810908E
:1027700000BF00BF4846BDE8F087000008380240AF
:102780000024F40040787D01F8B504460CB901201E
:10279000F8BD207800F00100002874D0F9480068E6
:1027A00000F00C0004280DD0F648006800F00C0082
:1027B000082813D1F348001F006800F48000B0F52A
:1027C000800F0BD1EF4808380068C0F34040002864
:1027D00059D06068002856D10120D9E700BF606851
:1027E000B0F5803F08D1E7480838006840F48030F1
:1027F000E449083908601EE06068B0F5A02F0DD1EB
:10280000E0480838006840F48020DE490839086054
:102810000846006840F4803008600CE0D948083869
:10282000006820F48030D7490839086008460068FD
:1028300020F48020086000BF606890B1FEF766FE5B
:10284000054606E0FEF762FE401B642801D903201E
:102850009EE7CC4808380068C0F340400028F1D01B
:1028600011E0FEF753FE054606E0FEF74FFE401B63
:10287000642801D903208BE7C24808380068C0F3F8
:1028800040400028F1D1207800F0020002285FD1FA
:10289000BC48006800F00C0058B1BA48006800F06D
:1028A0000C0008281CD1B748001F006800F4800005
:1028B000B0B9B44808380068C0F3400020B1E068FF
:1028C000012801D0012063E7AE480838006820F0F5
:1028D000F800216940EAC100AA490839086037E0D8
:1028E000E06800B30120A8490860FEF70FFE054626
:1028F00006E0FEF70BFE401B022801D9032047E744
:10290000A04808380068C0F340000028F1D09D4876
:102910000838006820F0F800216940EAC1009949B0
:102920000839086014E0002097490860FEF7EEFDC2
:10293000054606E0FEF7EAFD401B022801D9032008
:1029400026E7904808380068C0F340000028F1D11D
:10295000207800F0080008282CD16069A8B1012077
:102960008A490860FEF7D2FD054606E0FEF7CEFD77
:10297000401B022801D903200AE782486C30006816
:10298000C0F340000028F1D014E000207F49086027
:10299000FEF7BCFD054606E0FEF7B8FD401B022829
:1029A00001D90320F4E677486C300068C0F340009A
:1029B0000028F1D1207800F00400042870D100270D
:1029C00070483830006800F0805090B900BF002097
:1029D00000906C483830006840F0805069493831C8
:1029E00008600846006800F08050009000BF00BFFB
:1029F00001276748006800F48070B0B96448006837
:102A000040F4807062490860FEF780FD054606E0EC
:102A1000FEF77CFD401B022801D90320B8E65C4884
:102A2000006800F480700028F2D000BFA068012880
:102A300008D154486830006840F0010051496831BD
:102A400008601DE0A06805280DD14E486830006878
:102A500040F004004B49683108600846006840F0C7
:102A6000010008600CE047486830006820F0010071
:102A70004449683108600846006820F00400086096
:102A800000BFA068A8B1FEF741FD054609E0FEF7CA
:102A90003DFD401B41F28831884202D9032077E690
:102AA00026E0384868300068C0F340000028EED0C7
:102AB00013E0FEF72BFD054608E0FEF727FD401B5F
:102AC00041F28831884201D9032061E62D486830FF
:102AD0000068C0F340000028EFD1012F07D129483A
:102AE0003830006820F0805026493831086000BF37
:102AF000A069002845D02348006800F00C00082891
:102B00005DD0A069022845D100201F490866FEF764
:102B1000FDFC054606E0FEF7F9FC401B022801D942
:102B2000032035E6174808380068C0F340600028E5
:102B3000F1D1D4E907010843616A40EA8111012219
:102B4000A06AC2EB500041EA00412C20005D41EA3E
:102B500000600C49091F086001200B490866FEF758
:102B6000D5FC054606E0FEF7D1FC401B022801D942
:102B700003200DE6034808380068C0F340600028D1
:102B8000F1D049E00838024000004742800E474239
:102B900000700040002021490866FEF7B7FC05469A
:102BA00006E0FEF7B3FC401B022801D90320EFE545
:102BB0001B480068C0F340600028F2D12CE0A069F7
:102BC000012800D1E4E51648001D0668A069012827
:102BD00020D006F48001E06981421BD106F03F015C
:102BE000206A814216D147F6C0703040616AB0EB6E
:102BF000811F0FD106F440310122A06AC2EB5000C0
:102C0000B1EB004F06D106F070612C20005DB1EBF6
:102C1000006F01D00120BBE50020B9E5000047426C
:102C2000003802407047704710B504460CB90120C7
:102C300010BD94F83D0028B9002084F83C002046DF
:102C400000F025F8022084F83D00211D206801F0E5
:102C500041FC012084F8460000BF84F83E000121B9
:102C60003F200155402001554120015500BF00BFC4
:102C7000012084F84200432001554420015545209D
:102C8000015500BF012084F83D000020D0E77047C7
:102C9000014691F83D00012801D001207047022033
:102CA00081F83D000868C06840F001000B68D860FA
:102CB0001A4B086898421BD00868B0F1804F17D0B3
:102CC000174B0868984213D0164B086898420FD0EB
:102CD000154B086898420BD0144B0868984207D0EF
:102CE000134B0868984203D0124B086898420CD1E5
:102CF0000868806800F00702062A0CD0086800689F
:102D000040F001000B68186005E00868006840F0BA
:102D100001000B6818600020C0E7000000000140BF
:102D20000004004000080040000C00400004014086
:102D30000040014000180040704770B5044620680C
:102D4000C5682068066906F00200022819D105F05E
:102D50000200022815D1401F216808610120207758
:102D60002068806900F0030018B12046FFF7E4FFF7
:102D700005E0204600F097F8204600F095F8002086
:102D8000207706F00400042819D105F00400042877
:102D900015D1C0432168086102202077206880692E
:102DA00000F4407018B12046FFF7C6FF05E020464A
:102DB00000F079F8204600F077F80020207706F040
:102DC0000800082819D105F00800082815D1C043CB
:102DD00021680861042020772068C06900F00300A2
:102DE00018B12046FFF7A8FF05E0204600F05BF889
:102DF000204600F059F80020207706F01000102837
:102E000019D105F01000102815D1C04321680861C0
:102E1000082020772068C06900F4407018B120466F
:102E2000FFF78AFF05E0204600F03DF8204600F05D
:102E30003BF80020207706F0010048B105F00100C2
:102E400030B16FF0010021680861204600F02EF8D3
:102E500006F08000802809D105F08000802805D187
:102E6000C043216808612046FFF7DCFE06F0400001
:102E7000402809D105F04000402805D1C043216811
:102E80000861204600F01EF806F02000202809D135
:102E900005F02000202805D1C043216808612046A4
:102EA000FFF7C1FE70BD70477047000010B50446C3
:102EB00003492068884201D1FEF72EFB10BD0000B7
:102EC00000080040704700BFFEE730B50B46002108
:102ED00000BF16E00A24B4EB107F05D9302404EBC0
:102EE000107403F8114005E0412404EB10740A3C0F
:102EF00003F81140000100254C00641C1D554C1CBA
:102F0000E1B29142E6DB30BD00B5344890ED1A1ACB
:102F1000DFED331A31EE211AF0EE410A90ED041A7A
:102F2000B0EE410AFDF778FC2E4908702B4890ED71
:102F30004C1ADFED2B1A31EE211AF0EE410A90ED1A
:102F4000361AB0EE410AFDF767FC2649487023485F
:102F500090ED7E1ADFED221A31EE211AF0EE410AD1
:102F600090ED681AB0EE410AFDF756FC1D498870D5
:102F70001A4890EDB01ADFED1A1A31EE211AF0EE70
:102F8000410A90ED9A1AB0EE410AFDF745FC154949
:102F9000C870124890EDE21ADFED111A31EE211AD5
:102FA000F0EE410A90EDCC1AB0EE410AFDF734FC88
:102FB0000C4908710846007868B10846407850B15D
:102FC0000846807838B10846C07820B108460079B4
:102FD00008B1012000BD0020FCE70000C001002076
:102FE000000000002400002010B50E480E490860C3
:102FF0000320486000210C488160C1604FF4A0218B
:1030000001614FF4C0014161002101764176817672
:10301000C17601774177FDF767FF08B1FDF7F9FB4E
:1030200010BD000000640040AC08002010B50E4840
:103030000E4908600320486000210C488160C1608F
:103040004FF4A02101614FF4C001416100210176DC
:1030500041768176C17601774177FDF745FF08B16A
:10306000FDF7D7FB10BD000000680040D408002029
:1030700000B587B003220021012005F0B3F807490D
:1030800008601C2206496846FDF72AFA00216846B6
:1030900004F052F80349086007B000BD1400002096
:1030A000E48E00084C00002000B587B0142102A86F
:1030B000FDF748FA00BF002001903948006840F051
:1030C0008000374908600846006800F080000190E1
:1030D00000BF00BF00BF002001900846006840F01C
:1030E000040008600846006800F00400019000BF7A
:1030F00000BF00BF002001900846006840F00200B9
:1031000008600846006800F00200019000BF00BFA0
:1031100000BF002001900846006840F001000860F0
:103120000846006800F00100019000BF00BF0022C7
:103130004FF403711B48FEF7E3F900224FF470517E
:103140001948FEF7DDF900224FF480711748FEF7A9
:10315000D7F94FF4037002900120039000200490EF
:10316000059002A90F48FEF7D1F84FF47050029075
:103170000120039000200490059002A90A48FEF760
:10318000C5F84FF480700290012003900020049055
:10319000059002A90548FEF7B9F807B000BD000088
:1031A00030380240000802400004024000000240A3
:1031B00010B500220D490E4802F0D7F808B1FDF70E
:1031C00028FB0C490A4802F012FC08B1FDF721FB6C
:1031D0000949074801F0D0FC08B1FDF71AFB044883
:1031E00002F008FD08B1FDF714FB10BD54000020EB
:1031F0004409002040010020A400002000BFFEE799
:1032000010B54FF4FA6004F0E1FCB0EE002ADFEDF7
:10321000871A9FED871ADFED860AB1EE000A85480E
:1032200000F018FEB3EE042AF3EE041A9FED801AA4
:10323000DFED810AB0EE080A7E4800F016FE9FED31
:103240007F0A01217B4800F01BFEB0EE042ADFED6F
:10325000771A9FED771ADFED760AB2EE040A754809
:10326000C83000F0F7FD9FED762ADFED761A9FED6E
:10327000701ADFED750AB2EE0E0A6E48C83000F023
:10328000F4FD9FED720A01216A48C83000F0F8FD94
:103290009FED6F2ADFED651A9FED651ADFED640A79
:1032A000B2EE0E0A6B4800F0D5FDB3EE0E2ADFED4C
:1032B0005F1A9FED5F1AF6EE000AB2EE080A654843
:1032C00000F0D3FD9FED640A4FF0FF31614800F03C
:1032D000D7FDB3EE042ADFED551A9FED551ADFED49
:1032E000540AB7EE000A5B48C83000F0B3FDB3EEF5
:1032F000042ADFED531A9FED4E1ADFED530AB0EEAC
:10330000000A5448C83000F0B0FD9FED540A012176
:103310005048C83000F0B4FDB0EE002ADFED431A8B
:103320009FED431ADFED420AB1EE040A4C4800F06B
:1033300091FDB3EE042AF3EE041A9FED3D1ADFED82
:10334000490AB7EE080A464800F08FFD9FED460A8D
:103350000121434800F094FD642004F037FC012370
:103360001A464249334800F0C3FD02231A46404939
:103370003048C83000F0BCFD022303223C493548E8
:1033800000F0B6FD0023042238493248C83000F06E
:10339000AFFD042305223549314800F0A9FD002185
:1033A000244800F0E4FF012004F010FC0021214833
:1033B000C83000F0DCFF012004F008FC00212548A3
:1033C00000F0D5FF012004F001FC00212148C830A5
:1033D00000F0CDFF012004F0F9FB0021204800F0AF
:1033E000C6FFC82004F0F2FB124800F06FFD012078
:1033F00004F0ECFB0F48C83000F068FD012004F039
:10340000E5FB144800F062FD012004F0DFFB1148E9
:10341000C83000F05BFD012004F0D8FB104800F03C
:1034200055FD4FF4FA6004F0D1FB10BD0000C84216
:1034300000000000C00100200AD7A33BBF406E403F
:103440000000484200002042CDCC4C3E39B3DF4062
:1034500066668640500300209A311740E2BC8CBF5C
:10346000E00400206F12833AA3DDA840D4080020B6
:10347000AC08002005F0F8FA03220021012004F036
:10348000B1FE8B49086000218948006805F02AF9DF
:1034900000BFC8218648006805F024F90128F8D14A
:1034A00084480078401C83490870834890F84C0099
:1034B000824908708048406800EE100ADFED800AFB
:1034C00060EE200A7F4890F96C0000EE100AB8EE1A
:1034D000C00A20EE800A7B4880ED1C0A764880688E
:1034E00000EE100ADFED760A60EE200A754890F9CA
:1034F0006C0000EE100AB8EEC00A20EE800A714897
:1035000080ED1D0A6C48C06800EE100A9FED6C1A31
:10351000C0EE010A6B4890F96C0000EE100AB8EE9C
:10352000C00A20EE800A674880ED1E0A62480069E2
:1035300000EE100A634890F9340100EE900AF8EEAC
:10354000E00A20EE200A5F4880ED4E0A5A484069A2
:1035500000EE100A5B4890F9340100EE900AF8EE94
:10356000E00A20EE200A574880ED4F0A5248806951
:1035700000EE100A534890F9340100EE900AF8EE7C
:10358000E00A20EE200A4F4880ED500A4A48C06900
:1035900000EE100A4B4890F9FC0100EE900AF8EE9C
:1035A000E00A20EE200A474880ED800A4248006A7F
:1035B00000EE100A434890F9FC0100EE900AF8EE84
:1035C000E00A20EE200A3F4880ED810A3A48406A2E
:1035D00000EE100A3B4890F9FC0100EE900AF8EE6C
:1035E000E00A20EE200A374880ED820A3248806ADD
:1035F00000EE100A334890F9C40200EE900AF8EE8B
:10360000E00A20EE200A2F4880EDB20A2A48C06A5C
:1036100000EE100A2B4890F9C40200EE900AF8EE72
:10362000E00A20EE200A274880EDB30A2248006B0A
:1036300000EE100A234890F9C40200EE900AF8EE5A
:10364000E00A20EE200A1F4880EDB40A1A48406BB9
:1036500000EE100A1B4890F98C0300EE900AF8EE79
:10366000E00A20EE200A174880EDE40A1248806B39
:1036700000EE100A134890F98C0300EE900AF8EE61
:10368000E00A20EE200A0F4880EDE50A0A48C06BE8
:1036900000EE100A0B4890F98C0300EE900AF8EE49
:1036A000E00A20EE200A074880EDE60AF1E6000075
:1036B000140000201A000020A80500200A000020A5
:1036C00033333340C001002008B505F0CDF9009038
:1036D00000221146554802F007FD012054490860B8
:1036E00000BF002096E000EBC00101EB0011514A41
:1036F00002EBC101D1ED041A00EBC00101EB001196
:1037000002EBC10191ED1A2A31EEC22A00EBC00191
:1037100001EB001102EBC10191F96C1001EE901A5E
:10372000F8EEE11A62EE211AB0EE610A00EBC00178
:1037300001EB001102EBC10191ED052A00EBC00184
:1037400001EB001102EBC10191F96C1001EE901A2E
:10375000F8EEE11A62EE211AF0EE610A00EBC00108
:1037600001EB001102EBC10191ED062A00EBC00153
:1037700001EB001102EBC10191F96C1001EE901AFE
:10378000F8EEE11A62EE211AB0EE611A28BB9FED45
:103790002A2AF0EE421A80EE212A12EE101A00EBCD
:1037A0004003234A121D02EB8302116080EEA12A1E
:1037B00012EE101A00EB40031D4A121D02EB8302A9
:1037C000516021EE212A12EE101A00EB4003184A34
:1037D000121D02EB830291601AE010EE101A00EB4A
:1037E0004003134A121D02EB8302116010EE901A7F
:1037F00000EB40030E4A121D02EB8302516011EEF2
:10380000101A00EB40030A4A121D02EB830291607A
:10381000411CC8B20528FFF666AF4C210448FCF7EE
:10382000B1FF1421684604F0FFF95AE74107000888
:10383000F5050020C00100203333334008B505F002
:1038400013F900900122D1025748FDF759FE00BF3D
:10385000564802784FF480515348FDF751FE5348C3
:1038600002784FF400515048FDF74AFE002492E0E0
:1038700004EBC40101EB04114D4A02EBC10191EDCF
:103880001C1A04EBC40101EB041102EBC101D1EDE0
:103890001A1A31EE211AF0EE410A04EBC40101EBD1
:1038A000041102EBC10101F17C0004EBC40101EB46
:1038B000041102EBC10191ED041AB0EE410A00F0CF
:1038C00064FA04EBC40101EB0411394A02EBC101B3
:1038D00091ED261A04EBC40101EB041102EBC101C6
:1038E000D1ED1D1A31EE211AF0EE410A04EBC401AC
:1038F00001EB041102EBC10101F1A00004EBC401D2
:1039000001EB041102EBC10191ED051AB0EE410A81
:1039100000F03BFA04EBC40202EB0412244B03EB6D
:10392000C20292ED2F1A234A125D00EE902AF8EEA1
:10393000600A61EE200A04EBC40202EB041203EBFE
:10394000C202D2ED1E1A1C4A125D01EE102AB8EE18
:10395000411A41EE810AB0EE600A04EBC40202EBA8
:10396000041203EBC202117904EBC40202EB04124D
:1039700003EBC2009FED112ADFED101A9FED0F1A25
:10398000DFED0E0A00F0BCFA022C02D1012004F097
:103990001DF9601CC4B2052CFFF66AAF022168460F
:1039A00004F042F954E70000000402400A0000203D
:1039B000C0010020000000200500002000000000E1
:1039C0000EB505F051F80290142004F0FFF84548B8
:1039D00090ED040A444880ED000A424890ED360A12
:1039E000414880ED010A3F4890ED680A3E4880ED6D
:1039F000020A3C4890ED9A0A3B4880ED030A394898
:103A000090EDCC0A384880ED040A90ED000A354864
:103A1000D0ED1A0A30EE600A80ED1C0A324890EDB3
:103A2000010A3048D0ED4C0A30EE600A80ED4E0AB3
:103A30002D4890ED020A2B48D0ED7E0A30EE600A48
:103A400080ED800A284890ED030A2648D0EDB00AA0
:103A500030EE600A80EDB20A234890ED040A214856
:103A6000D0EDE20A30EE600A80EDE40A00BFDFED3F
:103A70001F0A9FED1F0A1B48703000F006FADFEDA9
:103A80001B0A9FED1B0A1B4800F0FFF9DFED170A28
:103A90009FED170A1748C83000F0F7F9DFED160A56
:103AA0009FED130A154800F0F0F9DFED100A9FEDC5
:103AB000100A1248C83000F0E8F9FFF725FA60B1A3
:103AC0000F4804210023C822CDE900100DA11148A0
:103AD00004F02AFF002004F011F9052102A804F0E7
:103AE000A3F8C4E7C0010020440600206F12833A07
:103AF00000000000F80200200AD7A33B8804002041
:103B00001C0000204D6F746F725265635461736BBB
:103B1000000000007534000800BFFEE710B5024841
:103B2000FDF7DBFF10BD0000201E00202DE9F0474F
:103B300004460D4626683746D6F8408007F53060C3
:103B400000EB4510D0F80890104880450BD909F4D7
:103B50000040B0F5004F06D14FF4004107F530604A
:103B600000EB451081602046FEF772FC0748804557
:103B700008D9A079012805D104F29C4201212068CE
:103B800002F020FD0020BDE8F08700000A30544F0D
:103B90002DE9F04705460C46D5F800904E46D9F879
:103BA00040A006F5306000EB4410D0F80880A879FA
:103BB000012855D108F0080008280FD14348824554
:103BC0000BD908F40040B0F5004F7BD14FF4004111
:103BD00006F5306000EB4410816073E008F02000CF
:103BE000202806D1202106F5306000EB44108160CA
:103BF00068E008F02800002864D1344882450CD9D8
:103C000008F40040B0F5004F07D14FF4004106F52D
:103C1000306000EB4410816054E004EBC40105F512
:103C2000157000EB810706F5306000EB4410396A2F
:103C30000069C0F31200081A786164B9386930B9B4
:103C400005F29C420121286802F0BCFC03E079697E
:103C5000F8680844F860E1B22846FDF7B5FD31E0A8
:103C60001B4882451BD108F40040B0F5004F07D136
:103C70004FF4004106F5306000EB4410816021E014
:103C800008F02000202805D1202106F5306000EB47
:103C900044108160E1B22846FDF796FD12E06CB950
:103CA00004EBC40105F5157000EB8100006928B92B
:103CB00005F29C420021286802F084FCE1B228460B
:103CC000FDF782FD0020BDE8F08700000A30544F68
:103CD0000A31544F2DE9F84F07460E46D7F80090A9
:103CE000C84606EBC60107F1140000EB8104D4E9D5
:103CF0000410884202D90120BDE8F88FD4E90401FC
:103D0000451AA068A84200D2A568E81C4FEA900AAC
:103D100017E0D4E90401451AA068A84200D2A568BA
:103D2000E81C4FEA900AB879ABB2F2B2009048466C
:103D3000E16803F06DF9E0682844E06060692844B8
:103D4000606108F5106000EB4610806980B2504554
:103D500006D3D4E90410884202D220690028D8D1C1
:103D6000D4E9040188420ED806F00F01012000FAC0
:103D700001FB40F6340050F8080020EA0B0040F642
:103D8000340141F808000020B6E790ED041A80EDF8
:103D9000051A30EEC01A80ED041A90ED061AD0ED27
:103DA000041A31EE211A80ED061A90ED061AD0EDB4
:103DB000031AB4EEE11AF1EE10FA03DD90ED031AE6
:103DC00080ED061A90ED061AD0ED031AF1EE611A95
:103DD000B4EEE11AF1EE10FA05D290ED031AB1EE4D
:103DE000411A80ED061A90ED001AD0ED041A21EE6A
:103DF000211AD0ED011A90ED062A01EE821AD0EDBB
:103E0000041A90ED052A71EEC21A90ED022A02EE14
:103E1000211A80ED071A90ED071AD0ED081AF1EE7D
:103E2000611AB4EEE11AF1EE10FA05D290ED081A1B
:103E3000B1EE411A80ED071A90ED071AD0ED081A7D
:103E4000B4EEE11AF1EE10FA03DD90ED081A80ED00
:103E5000071A704780ED1F0AC0ED200A80ED211A75
:103E6000C0ED221A80ED272A704780ED280AC0EDA8
:103E7000290A80ED2A1AC0ED2B1A80ED302A7047EE
:103E800080F86C1080ED1A0A7047D0ED001A70EEC1
:103E9000611AB0EE611AF0EEC11AF4EEE01AF1EE1A
:103EA00010FA02D280ED000A0FE090ED002AB5EE84
:103EB000C01AF1EE10FA02DDF0EE601A01E0F1EE48
:103EC000601A72EE211AC0ED001A70471CB5044644
:103ED0000020009001904FF04072A06842EA00205C
:103EE000626840EA02016A46204600F027FA1CBDDB
:103EF00010B501604260FD248460037310BD0000B2
:103F00002DE9F04F2DED0E8B83B004468946B0EEBF
:103F100040EAB0EE60CAF0EE41CAB0EE61DAF0EE0F
:103F200042DA2CB9012003B0BDEC0E8BBDE8F08F56
:103F3000002001900290207B06286AD2DFE800F082
:103F4000031425364758BBEE018AF3EE018A9FED34
:103F50005D9ADFED5D9A9FED5DAADFED5DAA9FEDB5
:103F60005BBAF1EE04BA56E0BBEE018AF3EE018AC9
:103F70009FED549ADFED549A9FED54AADFED55AAB8
:103F80009FED52BAF1EE04BA45E09FED538ADFEDA2
:103F9000538ABBEE049AF3EE049A9FED4CAADFED30
:103FA0004DAA9FED4ABADFED4EBA34E09FED4D8A3F
:103FB000DFED4D8ABAEE0E9AF2EE0E9A9FED43AA0D
:103FC000DFED44AA9FED41BADFED45BA23E0B9EE3B
:103FD000088AF1EE088A9FED459ADFED459A9FED3C
:103FE0003BAADFED3BAA9FED39BAF1EE04BA12E02D
:103FF0009FED408ADFED408A9FED3C9ADFED3C9AD1
:104000009FED32AADFED33AA9FED30BADFED34BA6F
:1040100001E0022087E700BF9FED381ADFED380A84
:10402000B0EE4C0A03F034F80546B0EE691AF0EE33
:10403000490AB0EE6C0A03F02BF80646B0EE6A1A95
:10404000F0EE4A0AB0EE4D0A03F022F80746B0EE51
:104050006B1AF0EE4B0AB0EE6D0A03F019F88046C9
:10406000B0EE681AF0EE480AB0EE4E0A03F010F80F
:104070008246280A8DF80400E8B28DF80500300A5F
:104080008DF80600F0B28DF80700380A8DF80800A8
:10409000F8B28DF809004FEA18208DF80A0008F0F0
:1040A000FF008DF80B004FF0807040EA0A2009F005
:1040B000FF0140EA010B01AA5946204600F03EF9F3
:1040C00031E70000000030C2000030420000000074
:1040D0000000FA4300409C45000070C2000070429E
:1040E0000000C8420000F0C20000F042000048C2D8
:1040F00000004842000010C200001042DB0F49419E
:10410000DB0F49C1F0B504460D46286826683668BD
:10411000B04201D00020F0BDC2F307266068B04273
:1041200001D00020F7E7110E00297AD0022979D1B9
:10413000160C84F8386058781E7840EA062001EEA4
:10414000100AB8EEC11ADFED741A31EE611AF1EE01
:10415000001A21EE211ADFED711A21EE211ADFED8E
:104160006E1A81EE212A84ED042A207B062822D2B1
:10417000DFE800F003080D12171C9FED690AF3EE4B
:10418000010A1EE09FED660AF3EE010A19E0B3EEA4
:10419000040ADFED640A14E0B2EE0E0ADFED620AF3
:1041A0000FE09FED620AF1EE080A0AE09FED5F0A58
:1041B000DFED5F0A05E09FED5F0ADFED5E0A01209B
:1041C000A9E700BFD8789E7840EA0620A0F5FE4017
:1041D000FF3801EE100AB8EEC11A21EE001ADFED29
:1041E0004E1A81EE212A84ED052A58791E7940EA7B
:1041F0000620A0F5FE40FF3801EE100AB8EEC11A05
:1042000021EE201ADFED441A81EE212A84ED062AE0
:10421000D8799E7940EA062001EE100AB8EEC11A5C
:1042200001E076E006E0DFED441A21EE211A84ED8C
:10423000091A6EE0152904D1D3E90067C4E90C67B7
:1042400067E0112965D11E785F7846EA072047F2BA
:104250001807C61BB8423BD015DC47F21107A0EB8C
:104260000706B84225D009DCA0F5E046A6F1050610
:1042700096B1062E13D00B2E48D115E0032E1DD07B
:10428000062E43D11FE0092E40D2DFE806F03F356D
:104290003F3A3F3F262B30001E79266437E093EDEE
:1042A000010A84ED110A32E093ED010A84ED120A4D
:1042B0002DE093ED010A84ED130A28E093ED010A45
:1042C00084ED140A23E093ED010A84ED150A1EE043
:1042D00093ED010A84ED160A19E093ED010A84EDCD
:1042E000170A14E093ED010A84ED180A0FE093ED2C
:1042F000010A84ED190A0AE093ED010A84ED040A2B
:1043000005E093ED010A84ED050A00E000BF00BF5F
:1043100000BF0120FFE6000000FEFF46DB0F494022
:1043200000003042000070420000F04200004842AD
:104330000000104200000000CDCCCC3D70B588B02C
:1043400004460D4616460020029003950420049072
:10435000002005900820069000208DF81C0001AB7D
:10436000324602A92068FCF798FA08B070BD7CB507
:1043700004460D4600200090019005208DF80000B5
:1043800070208DF801008DF804504FF09052A06815
:1043900042EA0020626840EA02016A462046FFF7CE
:1043A000CDFF7CBD30B501460A461378521C147807
:1043B00043EA042030BDFEF7FBFE00F0FBF800BF2F
:1043C000012002F0A8FEFBE710B500BF502080F3EB
:1043D0001188BFF34F8FBFF36F8F00BF04F04AFB0C
:1043E00018B14FF080500449086000BF002080F3EE
:1043F000118800BF10BD000004ED00E000B593B0CF
:10440000302107A8FCF79EF8142102A8FCF79AF8BF
:1044100000BF002001902448006840F080502249ED
:1044200008600846006800F08050019000BF00BF9F
:1044300000BF002001901D48006840F480401B49E7
:1044400008600846006800F48040019000BF00BF8B
:10445000012007900004089002200D9041050E9164
:1044600019210F914FF4A871109102211191072188
:10447000129107A8FEF788F908B1FCF7CAF90F20D6
:10448000029002200390002004904FF4A050059069
:104490004FF480500690052102A8FEF723F808B1DA
:1044A000FCF7B7F913B000BD40380240007000407F
:1044B0000348006840F4700001490860704700003C
:1044C00088ED00E010B50248FEF737FC10BD000093
:1044D000FC08002010B502682B4B98420ED0B0F1BA
:1044E000804F0BD0294B984208D0294B984205D0D9
:1044F000284B984202D0284B984203D122F07002F8
:104500004B681A43204B984220D0B0F1804F1DD009
:104510001E4B98421AD01E4B984217D01D4B984202
:1045200014D01D4B984211D01C4B98420ED01C4BFE
:1045300098420BD01B4B984208D01B4B984205D099
:104540001A4B984202D01A4B984203D122F440727F
:10455000CB681A4322F080034C6943EA04028B685B
:10456000C3620B688362084B984202D00A4B9842A0
:1045700001D10B690363036843F004030360012363
:104580004361026010BD00000000014000040040D3
:1045900000080040000C00400004014000400140C1
:1045A000004401400048014000180040001C004049
:1045B000002000401CB51F48FCF700F91E48FCF71E
:1045C000FDF81C48FCF757FE1B48FCF754FE02217F
:1045D0001848FCF74DF910211748FCF749F901215B
:1045E0001448FCF745F901211348FCF741F9FEF79F
:1045F00007FE1248042100234FF41D72CDE900107C
:104600000FA1124804F090F91148042100234FF43F
:104610009672CDE900100FA1114804F085F91148F8
:10462000042100238022CDE900100FA1124804F0DC
:104630007BF91CBDAC080020D40800200C00002031
:104640004D6F746F725F4472697665003D38000883
:10465000200000204D6F746F725F72657365740087
:10466000C1390008100000204D6F746F7253656EE1
:10467000645461736B000000C93600082DE9F041F5
:1046800004460D46D4F8C87204F53070D4F8D4123C
:1046900050F8210010B90320BDE8F08104F5307016
:1046A000D4F8D41250F8216005F00F0000EB80011F
:1046B00004F1140050F8210028B305F00F0000EBBE
:1046C000800104F1140050F8211005F00F0000EBF8
:1046D000C00207F1140000EB82008068B1FBF0F229
:1046E00000FB121078B9002105F00F0000EB8002EA
:1046F00004F1140040F8221000231A4629462046EF
:1047000001F042F917E00020C6F8140204F53170F8
:10471000D4F8D41250F82100006960B1D6F808022C
:1047200004F53171D4F8D42251F822102A460B69CD
:1047300006F5047198470020AEE770B504460E46B2
:1047400004F53070D4F8D41250F82150D4F8D412B3
:1047500050F8210008B9032070BD3146204600F012
:104760006AFFC5F80C02D5F8040204F53171D4F8DB
:10477000D43251F82310CA6805F503719047002020
:10478000EAE7000070B504460D463048017820463F
:1047900000F01BFE00212D48007800F00F0000EB18
:1047A000800204F1140000EB8200C17328480178F4
:1047B000204600F00AFE00212548007800F00F0096
:1047C00000EB800204F5AA7000EB8200C17321485F
:1047D0000178204600F0F9FD00211E48007800F025
:1047E0000F0000EB800204F1140000EB8200C173A3
:1047F0001848007800F00F0000EB800204F114006C
:1048000000EB8200816004F53070D4F8D41250F8C7
:104810002100C8B104F53171D4F8D42251F8221026
:104820004868804704F53071D4F8D42251F822004A
:1048300001F0D6FB002104F53070D4F8D42240F802
:1048400022100020C4F8BC02002070BDBB01002073
:10485000BC010020BD01002070B5044604F5307095
:10486000D4F8D41250F821500DB9032070BD04F5CE
:104870003170D4F8D41250F8210098B195F80002A4
:10488000FF280FD095F8012295F8000204F5317148
:10489000D4F8D46251F826108B6829469847FF2037
:1048A00085F800020020E1E701460A20088001485F
:1048B00070470000340100202DE9F04104468221B8
:1048C0000D4800F09EFC054601210B4800F099FCC4
:1048D00006468121084800F094FC07460DB11020DF
:1048E000A8710EB14020B0800FB14020B8804320A5
:1048F00020800148BDE8F081780100202DE9F041D9
:10490000044682210E4800F07CFC054601210C483B
:1049100000F077FC06468121094800F072FC07464A
:104920000DB11020A87116B14FF40070B08017B10E
:104930004FF40070B880432020800148BDE8F0812A
:10494000780100202DE9F041044682210D4800F055
:1049500058FC054601210B4800F053FC0646812116
:10496000084800F04EFC07460DB11020A8710EB1AA
:104970004020B0800FB14020B88043202080014803
:10498000BDE8F0817801002070B504460E464FF472
:10499000077001F027FB054645B9002104F530708A
:1049A000D4F8D42240F82210022070BD4FF40771D1
:1049B0002846FBF7C7FD04F53070D4F8D41240F850
:1049C0002150D4F8D41250F82100C4F8BC02207C45
:1049D00098BB4FF40073022250480178204600F043
:1049E000CBFE01214D48007800F00F0000EB800263
:1049F00004F1140000EB8200C1734B02022248480C
:104A00000178204600F0B8FE01214548007800F00A
:104A10000F0000EB800204F5AA7000EB8200C17366
:104A200010214048007800F00F0000EB800204F1F4
:104A3000140000EB8200816032E0FFE74023022295
:104A400036480178204600F097FE0121334800786F
:104A500000F00F0000EB800204F1140000EB820074
:104A6000C173402302222E480178204600F084FEC4
:104A700001212B48007800F00F0000EB800204F5C4
:104A8000AA7000EB8200C17310212648007800F064
:104A90000F0000EB800204F1140000EB8200816043
:104AA000082303221F480178204600F065FE0121FB
:104AB0001C48007800F00F0000EB800204F11400A5
:104AC00000EB8200C1730020C5F8040204F53171C7
:104AD000D4F8D42251F82210086880470020C5F885
:104AE0001402C5F81802D5F8040208B902205CE7E0
:104AF000207C48B94FF40073094801782046D5F866
:104B0000042200F051FE07E04023054801782046CA
:104B1000D5F8042200F048FE002046E7BB01002043
:104B2000BC010020BD01002070B5044604F53070C2
:104B3000D4F8D41250F82150D4F8D41250F82100EF
:104B400008B9032070BD207C48B94FF400730948B0
:104B500001782046D5F8042200F026FE07E0402325
:104B6000044801782046D5F8042200F01DFE0020FC
:104B7000E8E70000BC010020024609B903207047A5
:104B800002F53170D2F8D43240F823100020F6E755
:104B900010B5024602F53070D2F8D44250F82430F5
:104BA0000BB9032010BDC3F804120020FAE730B59A
:104BB00003460C4603F53070D3F8D45250F8251054
:104BC00009B9032030BDC1F80842C1F81022002005
:104BD000F8E72DE9FC4105460C4605F53070D5F89F
:104BE000D41250F82160002001900090804616B940
:104BF0000320BDE8FC81207800F0600000283DD053
:104C000020287CD1E08868B3207800F08000B8B11B
:104C1000E288607805F53171D5F8D4C251F82C10CE
:104C20008B6831469847E088072801D9072000E0C3
:104C3000E08807463A463146284600F012F91CE063
:104C4000607886F80002E088402801D2E08800E021
:104C5000402086F8010296F801223146284600F0ED
:104C6000DCF80AE0607805F53171D5F8D42251F806
:104C7000221000228B682146984747E0607830B1C7
:104C8000012832D00A2813D00B282FD121E095F823
:104C90009C02032805D102226946284600F0E1F86B
:104CA00005E02146284600F0ACF84FF0030824E068
:104CB00095F89C02032805D1012201A9284600F09D
:104CC000D0F805E02146284600F09BF84FF0030895
:104CD00013E095F89C02032805D02146284600F0F1
:104CE00090F84FF0030808E009E006E02146284666
:104CF00000F087F84FF0030800BF00BF06E0214630
:104D0000284600F07EF84FF0030800BF00BF404681
:104D10006FE7000070B5054605F53070D5F8D41280
:104D200050F8214001260CB9032070BDD4F81402BC
:104D3000C0B90120C4F814020B48007800F00F003D
:104D400000EB800205F11400D4F8101240F8221094
:104D5000054801782846D4F81032D4F8082200F02B
:104D600013FE00263046E0E7BB01002070B5044684
:104D70000D460026D4F8B8022946426820469047DE
:104D800000B10326304670BD70B504460D4694F858
:104D90009C02012804D0022803D003280CD101E092
:104DA00000BF00BF6888012805D10020C4F8A40214
:104DB000204600F068F804E02946204600F021F87B
:104DC00000BF00BF70BD02460020704702460020B1
:104DD000704770B506460C4615462B462246002104
:104DE000304600F0E1FC002070BD70B506460C4670
:104DF00015462B4622460021304600F0C5FD002016
:104E000070BD70B504460D468021204600F08CFD33
:104E10000021204600F088FD70BD70B504460E46A6
:104E200015460320C4F89402C4F854514FF4B270EC
:104E300006514FF4AC7005512B46324600212046F6
:104E400000F0B2FC002070BD10B504460520C4F887
:104E5000940200231A461946204600F0A5FC0020C3
:104E600010BD70B504460E4615460220C4F89402E3
:104E700065616662A5612B4632460021204600F03E
:104E800083FD002070BD10B504460420C4F89402D0
:104E900000231A461946204600F076FD002010BD7A
:104EA00070B505460C462DB92246064906A000F00D
:104EB00012FA04E02246034903A000F00CFA01486C
:104EC00070BD0000200C002043444320436F6E66F9
:104ED0006967000002461220088001487047000000
:104EE0007000002070B505460C462DB922460649D3
:104EF00006A000F0F0F904E02246034903A000F008
:104F0000EAF9014870BD0000200C00204344432012
:104F1000496E746572666163650000000246042094
:104F200008800148704700008400002070B50546E5
:104F30000C462246024903A000F0CDF9004870BD9E
:104F4000200C002053544D6963726F656C65637467
:104F5000726F6E696373000070B505460C462DB91B
:104F60002246064906A000F0B6F904E022460349AD
:104F700003A000F0B0F9014870BD0000200C002033
:104F800053544D3332205669727475616C20436FEF
:104F90006D506F727400000070B505460C461A2003
:104FA0002080FBF74BFC014870BD0000880000200A
:104FB00070B504460D46E888012804D029462046ED
:104FC000FFF71FFF1EE094F89C02012804D002287E
:104FD00003D0032810D109E000BF0020A060012207
:104FE00004F108012046FFF73CFF0AE00122211DE1
:104FF0002046FFF736FF04E029462046FFF701FF71
:1050000000BF00BF70BDF8B504460E4600200090FA
:105010000027002570880012082875D2DFE800F00C
:10502000C7040C20C7C7A5B5207CD4F8B4120A6801
:10503000694690470746C1E0207C40B9D4F8B802E1
:10504000816A6846884707460220787007E0D4F8EE
:10505000B802C16A68468847074602207870ADE00A
:10506000B078062878D2DFE800F00316293C5063B8
:10507000D4F8B402406838B1207CD4F8B4124A683D
:1050800069469047074605E031462046FFF7B9FEDE
:10509000681CC5B267E0D4F8B402806838B1207CDF
:1050A000D4F8B4128A6869469047074605E031464D
:1050B0002046FFF7A6FE681CC5B254E0D4F8B4023F
:1050C000C06838B1207CD4F8B412CA6869469047E9
:1050D000074605E031462046FFF793FE681CC5B23F
:1050E00041E0D4F8B402006938B1207CD4F8B4129D
:1050F0000A6969469047074605E031462046FFF7B2
:1051000080FE681CC5B22EE051E0D4F8B4024069BC
:1051100038B1207CD4F8B4124A69694690470746F2
:1051200005E031462046FFF76CFE681CC5B21AE068
:10513000D4F8B402806940B1207CD4F8B4128A69F2
:1051400069469047074606E006E031462046FFF7ED
:1051500058FE681CC5B206E031462046FFF751FEF6
:10516000681CC5B200BF00BF28E0207C30B9D4F86D
:10517000B802416B68468847074605E0314620463D
:10518000FFF73FFE681CC5B218E0207C40B9D4F898
:10519000B802016B6846884707460720787005E02B
:1051A00031462046FFF72DFE681CC5B206E03146A9
:1051B0002046FFF726FE681CC5B200BF00BF05B140
:1051C000F8BDF088C0B1BDF8000080B1F088BDF82E
:1051D0000010884202DDBDF8000000E0F088009079
:1051E000BDF8002039462046FFF73BFE07E0314678
:1051F0002046FFF706FE02E02046FFF744FE00BF10
:10520000DEE72DE9F84105460F462C462E464FF0C5
:10521000000870883178884218DD307800900FE0FF
:105220006946204600F020F804466078052807D13A
:10523000A04698F80200B84200D106E04FF00008FE
:105240007088BDF800108842EADC00BF4046BDE827
:10525000F881014600200A4602E0431CD8B2521CE5
:105260001378002BF9D1704710B5024610460B8811
:10527000047823440B800378981810BD70B5044659
:105280000D4694F89C02012804D0022803D003287C
:105290001AD101E000BF00BFE888022804D02946E7
:1052A0002046FFF7AEFD14E00120E060D4F8A40230
:1052B00018B1E06840F00200E060022204F10C0145
:1052C0002046FFF7CEFD04E029462046FFF799FD72
:1052D00000BF00BF70BD2DE9F04107460D46904666
:1052E00000240FB9BDE8F0813E463046FFF7B1FF1C
:1052F000022101EB4000B0F5007F01D9080204E073
:105300003046FFF7A6FF4000801CA8F8000098F880
:1053100000002855601CC4B203202855601CC4B28C
:1053200008E030782855761C601CC4B2002028554F
:10533000601CC4B230780028F3D100BFD2E7014628
:10534000002031B1012906D0022906D0032908D155
:1053500005E0002007E0032005E0012003E0032032
:1053600001E0032000BF00BF70472DE9F041044673
:105370000D46164614B90320BDE8F0810020C4F89C
:10538000B802C4F8C402C4F8D0020DB1C4F8B452D3
:10539000012084F89C022670204600F055F907464B
:1053A0003846E9E72DE9F04104460D46002600277E
:1053B0002946D4F8C802FCF774FA06463046FFF7CF
:1053C000BEFF07463846BDE8F0812DE9F0410446AE
:1053D0000D46002600272946D4F8C802FCF72CFA0F
:1053E00006463046FFF7ABFF07463846BDE8F0817A
:1053F0002DE9F04705460F469146002F5AD105F199
:105400001404D5F8940202284AD1A1896068884220
:1054100013D9A1896068401A6060A1892069084495
:105420002061284662682169FFF7DFFC00231A46E5
:105430001946284600F0B8F932E0A0896168884230
:1054400017D1A1892068884213D32068D5F8981213
:1054500088420ED2002211462846FFF7C6FC0020E3
:10546000C5F8980200231A461946284600F09CF910
:1054700016E095F89C0203280BD1D5F8B802C06855
:1054800038B10020C5F8D402D5F8B802C168284662
:1054900088478021284600F047FA2846FFF7D4FCC9
:1054A00095F8A00250B3284600F0C5FA002085F810
:1054B000A00223E047F080012846FFF784FC06465F
:1054C000FF2E1BD0D6B995F89C02032816D105F5FE
:1054D0002E7050F82600406980B1C5F8D46205F5F9
:1054E0002E7050F82600394642692846904780467B
:1054F000B8F1000F02D04046BDE8F0870020FBE77E
:105500002DE9F04705460F4691464FF00008002F61
:1055100055D105F5AA76D5F89402032873D1B1893F
:105520007068884214D9B1897068401A7060B18976
:10553000306908443061B3897068984201D9706855
:1055400000E0B089024628463169FFF742FC5AE084
:1055500095F8AA0200F01F0020B1012804D002280B
:1055600012D109E0002411E040F2AE20415D28464E
:10557000FFF72CFC044609E040F2AE20415D2846CE
:10558000FFF721FC044601E0002400BF00BF94B9EE
:1055900095F89C0203280ED105F52E7050F82400D2
:1055A000006940B1C5F8D44205F52E7050F82400CA
:1055B0000169284688472846FFF765FC23E007F085
:1055C0007F012846FFF7FFFB0446FF2C1BD0D4B910
:1055D00095F89C02032810D105F52E7050F8240090
:1055E000806950B1C5F8D44205F52E7050F82400FA
:1055F00039468269284690478046B8F1000F02D0AC
:105600004046BDE8F0870020FBE7014600207047D8
:1056100070B504460025012084F89C02D4F8B80235
:1056200038B12179D4F8B80242682046904700B1D9
:105630000325284670BD70B504460D462946D4F8AA
:10564000C802FCF76CF970BD10B50446207800283C
:105650002AD11648C0F8E044C4F8C8024FF0A04070
:10566000124908600420087102211048C17100210C
:1056700081710221417200218172C17201738173B3
:10568000C173FCF7A1FD08B1FBF7C3F880210748FF
:10569000FCF757F8402200210448FCF757F8802215
:1056A00001210248FCF752F8002010BD201E002006
:1056B00010B50246D2F8C83201F08000802809D126
:1056C00001F07F0000EBC00403F1140000EB840044
:1056D000807810BD01F07F0000EBC00403F5157069
:1056E00000EB84008078F4E770B504460D4604F5BD
:1056F0002E70D4F8D41250F8210008B9032070BDE0
:1057000094F89C02032811D104F52E70D4F8D41219
:1057100050F82100006A48B104F52E70D4F8D41274
:1057200050F821002946026A204690470020E6E70B
:1057300070B504460D4604F52E70D4F8D41250F816
:10574000210008B9032070BD94F89C02032811D1F0
:1057500004F52E70D4F8D41250F82100406A48B1F4
:1057600004F52E70D4F8D41250F821002946426A6C
:10577000204690470020E6E72DE9F04704460F4613
:1057800015461E464FF00008C1462B4632463946A4
:10579000D4F8C802FCF7CEF880464046FFF7CFFDAC
:1057A00081464846BDE8F0872DE9F04704460D469E
:1057B00016461F464FF00008C1463B463246294672
:1057C000D4F8C802FCF7FDF880464046FFF7B7FD65
:1057D00081464846BDE8F08770B5044600250120A3
:1057E00084F89C020020C4F894026060C4F8A4020B
:1057F00084F8A002D4F8B80258B1D4F8B8024068CE
:1058000038B12179D4F8B80242682046904700B1F7
:1058100003254023002211462046FFF7ADFF01215A
:1058200040F2631001554021C01E01534023002265
:1058300080212046FFF7A0FF0121232001554021B0
:105840002184284670BD014691F89C02042803D1AA
:1058500091F89D0281F89C020020704710B5044623
:1058600094F89C0203280BD1D4F8B80240B1D4F8C4
:10587000B802C06920B1D4F8B802C169204688478F
:10588000002010BD02461174002070472DE9F04140
:1058900004460D46002600272946D4F8C802FCF726
:1058A000BDFD06463046FFF74AFD07463846BDE8CF
:1058B000F08170B504460D46294604F2AA2000F096
:1058C0007BF80120C4F894024FF42C70005BC4F8FC
:1058D000980294F8AA0200F01F0020B1012809D014
:1058E000022815D10DE004F2AA21204600F088F923
:1058F000064616E004F2AA21204600F01AFB0646EE
:105900000FE004F2AA21204600F0D1F9064608E093
:1059100094F8AA0200F08001204600F005F806463F
:1059200000BF00BF304670BD2DE9F04104460D4672
:10593000002600272946D4F8C802FCF765F8064679
:105940003046FFF7FCFC07463846BDE8F08170B5ED
:10595000044600250026D4F8C802FCF782FD05465F
:105960002846FFF7ECFC0646304670BD014691F82C
:105970009C02042803D091F89C0281F89D02042027
:1059800081F89C02002070472DE9F04704460D463F
:1059900016461F464FF00008C1463B463246294690
:1059A000D4F8C802FCF775F880464046FFF7C7FCFC
:1059B00081464846BDE8F08770B505460E46344638
:1059C00020782870641C20786870641C2046FEF7DC
:1059D000E9FC6880641C641C2046FEF7E3FCA88098
:1059E000641C641C2046FEF7DDFCE88070BD38B501
:1059F00004460D46002000900DB9032038BDC4F8C0
:105A0000B85204F52E70D4F8D41250F82100C06AB0
:105A100050B104F52E70D4F8D42250F82200C16A97
:105A200068468847C4F8D002D4F8D802401CC4F8AD
:105A3000D8020020E2E701460020704770B5044616
:105A40000D46A88810BBE88800BB688880281DD256
:105A5000A87800F07F0694F89C02032804D1294618
:105A60002046FFF7CEF915E084F89E6231462046C5
:105A7000FFF70CFF2046FFF706FA1EB1022084F85C
:105A80009C0207E0012084F89C0203E0294620469E
:105A9000FFF7B7F970BD70B504460D460026D4F87F
:105AA000B80230B1D4F8B8022946026820469047BF
:105AB0000646304670BD000070B504460E4600250F
:105AC000B0783D49087008460078012805D931466C
:105AD0002046FFF796F9032070BD94F89C02022837
